{
  "_format": "hh-sol-artifact-1",
  "contractName": "WavePortal",
  "sourceName": "contracts/WavePortal.sol",
  "abi": [
    {
      "inputs": [],
      "stateMutability": "payable",
      "type": "constructor"
    },
    {
      "anonymous": false,
      "inputs": [
        {
          "indexed": true,
          "internalType": "address",
          "name": "from",
          "type": "address"
        },
        {
          "indexed": false,
          "internalType": "string",
          "name": "message",
          "type": "string"
        },
        {
          "indexed": false,
          "internalType": "uint256",
          "name": "timeStamp",
          "type": "uint256"
        }
      ],
      "name": "NewWave",
      "type": "event"
    },
    {
      "inputs": [],
      "name": "getAllWaves",
      "outputs": [
        {
          "components": [
            {
              "internalType": "address",
              "name": "waver",
              "type": "address"
            },
            {
              "internalType": "string",
              "name": "message",
              "type": "string"
            },
            {
              "internalType": "uint256",
              "name": "timestamp",
              "type": "uint256"
            }
          ],
          "internalType": "struct WavePortal.Wave[]",
          "name": "",
          "type": "tuple[]"
        }
      ],
      "stateMutability": "view",
      "type": "function"
    },
    {
      "inputs": [],
      "name": "getTotalWaves",
      "outputs": [
        {
          "internalType": "uint256",
          "name": "",
          "type": "uint256"
        }
      ],
      "stateMutability": "view",
      "type": "function"
    },
    {
      "inputs": [],
      "name": "getWavesByAddress",
      "outputs": [
        {
          "internalType": "uint256",
          "name": "",
          "type": "uint256"
        }
      ],
      "stateMutability": "view",
      "type": "function"
    },
    {
      "inputs": [
        {
          "internalType": "address",
          "name": "",
          "type": "address"
        }
      ],
      "name": "lastWavedAt",
      "outputs": [
        {
          "internalType": "uint256",
          "name": "",
          "type": "uint256"
        }
      ],
      "stateMutability": "view",
      "type": "function"
    },
    {
      "inputs": [
        {
          "internalType": "address",
          "name": "",
          "type": "address"
        }
      ],
      "name": "totalWavesByAddress",
      "outputs": [
        {
          "internalType": "uint256",
          "name": "",
          "type": "uint256"
        }
      ],
      "stateMutability": "view",
      "type": "function"
    },
    {
      "inputs": [
        {
          "internalType": "string",
          "name": "_message",
          "type": "string"
        }
      ],
      "name": "wave",
      "outputs": [],
      "stateMutability": "nonpayable",
      "type": "function"
    }
  ],
  "bytecode": "0x608060405262000033604051806060016040528060258152602001620016d7602591396200005b60201b620008201760201c565b60644442620000439190620001a8565b6200004f919062000245565b600081905550620002ec565b620000fb8160405160240162000072919062000168565b6040516020818303038152906040527f41304fac000000000000000000000000000000000000000000000000000000007bffffffffffffffffffffffffffffffffffffffffffffffffffffffff19166020820180517bffffffffffffffffffffffffffffffffffffffffffffffffffffffff8381831617835250505050620000fe60201b60201c565b50565b60008151905060006a636f6e736f6c652e6c6f679050602083016000808483855afa5050505050565b600062000134826200018c565b62000140818562000197565b9350620001528185602086016200020f565b6200015d81620002db565b840191505092915050565b6000602082019050818103600083015262000184818462000127565b905092915050565b600081519050919050565b600082825260208201905092915050565b6000620001b58262000205565b9150620001c28362000205565b9250827fffffffffffffffffffffffffffffffffffffffffffffffffffffffffffffffff03821115620001fa57620001f96200027d565b5b828201905092915050565b6000819050919050565b60005b838110156200022f57808201518184015260208101905062000212565b838111156200023f576000848401525b50505050565b6000620002528262000205565b91506200025f8362000205565b925082620002725762000271620002ac565b5b828206905092915050565b7f4e487b7100000000000000000000000000000000000000000000000000000000600052601160045260246000fd5b7f4e487b7100000000000000000000000000000000000000000000000000000000600052601260045260246000fd5b6000601f19601f8301169050919050565b6113db80620002fc6000396000f3fe608060405234801561001057600080fd5b50600436106100625760003560e01c806341a9e02014610067578063449d46c0146100975780636566daca146100b35780639a2cdc08146100d1578063a42a4663146100ef578063bd43a9081461011f575b600080fd5b610081600480360381019061007c9190610bd9565b61013d565b60405161008e9190610fad565b60405180910390f35b6100b160048036038101906100ac9190610c02565b610155565b005b6100bb6105a6565b6040516100c89190610fad565b60405180910390f35b6100d961066c565b6040516100e69190610fad565b60405180910390f35b61010960048036038101906101049190610bd9565b6106b7565b6040516101169190610fad565b60405180910390f35b6101276106cf565b6040516101349190610e6b565b60405180910390f35b60026020528060005260406000206000915090505481565b42603c600360003373ffffffffffffffffffffffffffffffffffffffff1673ffffffffffffffffffffffffffffffffffffffff168152602001908152602001600020546101a2919061108f565b106101e2576040517f08c379a00000000000000000000000000000000000000000000000000000000081526004016101d990610f4d565b60405180910390fd5b42600360003373ffffffffffffffffffffffffffffffffffffffff1673ffffffffffffffffffffffffffffffffffffffff168152602001908152602001600020819055506001806000828254610238919061108f565b925050819055506001600260003373ffffffffffffffffffffffffffffffffffffffff1673ffffffffffffffffffffffffffffffffffffffff168152602001908152602001600020600082825461028f919061108f565b92505081905550600460405180606001604052803373ffffffffffffffffffffffffffffffffffffffff16815260200183815260200142815250908060018154018082558091505060019003906000526020600020906003020160009091909190915060008201518160000160006101000a81548173ffffffffffffffffffffffffffffffffffffffff021916908373ffffffffffffffffffffffffffffffffffffffff1602179055506020820151816001019080519060200190610355929190610ab9565b5060408201518160020155505060646000544244610373919061108f565b61037d919061108f565b61038791906111c6565b6000819055506103ce6040518060400160405280601481526020017f52616e646f6d20232067656e6572617465643a200000000000000000000000008152506000546108b9565b603260005411610514576104176040518060400160405280600781526020017f257320776f6e210000000000000000000000000000000000000000000000000081525033610955565b6000655af3107a4000905047811115610465576040517f08c379a000000000000000000000000000000000000000000000000000000000815260040161045c90610f6d565b60405180910390fd5b60003373ffffffffffffffffffffffffffffffffffffffff168260405161048b90610e56565b60006040518083038185875af1925050503d80600081146104c8576040519150601f19603f3d011682016040523d82523d6000602084013e6104cd565b606091505b5050905080610511576040517f08c379a000000000000000000000000000000000000000000000000000000000815260040161050890610f8d565b60405180910390fd5b50505b3373ffffffffffffffffffffffffffffffffffffffff167f6728ef66814a55b797863bf8ffcd954b19cbca4ed4f0e6cf04c980705fd82c36824260405161055c929190610f1d565b60405180910390a26105a36040518060400160405280600d81526020017f257320686173207761766564210000000000000000000000000000000000000081525033610955565b50565b60006106276040518060400160405280601581526020017f546f74616c2077617665732062792025733a202564000000000000000000000081525033600260003373ffffffffffffffffffffffffffffffffffffffff1673ffffffffffffffffffffffffffffffffffffffff168152602001908152602001600020546109f1565b600260003373ffffffffffffffffffffffffffffffffffffffff1673ffffffffffffffffffffffffffffffffffffffff16815260200190815260200160002054905090565b60006106af6040518060400160405280600f81526020017f546f74616c2077617665733a20256400000000000000000000000000000000008152506001546108b9565b600154905090565b60036020528060005260406000206000915090505481565b60606004805480602002602001604051908101604052809291908181526020016000905b8282101561081757838290600052602060002090600302016040518060600160405290816000820160009054906101000a900473ffffffffffffffffffffffffffffffffffffffff1673ffffffffffffffffffffffffffffffffffffffff1673ffffffffffffffffffffffffffffffffffffffff16815260200160018201805461077c90611163565b80601f01602080910402602001604051908101604052809291908181526020018280546107a890611163565b80156107f55780601f106107ca576101008083540402835291602001916107f5565b820191906000526020600020905b8154815290600101906020018083116107d857829003601f168201915b50505050508152602001600282015481525050815260200190600101906106f3565b50505050905090565b6108b6816040516024016108349190610e8d565b6040516020818303038152906040527f41304fac000000000000000000000000000000000000000000000000000000007bffffffffffffffffffffffffffffffffffffffffffffffffffffffff19166020820180517bffffffffffffffffffffffffffffffffffffffffffffffffffffffff8381831617835250505050610a90565b50565b61095182826040516024016108cf929190610f1d565b6040516020818303038152906040527f9710a9d0000000000000000000000000000000000000000000000000000000007bffffffffffffffffffffffffffffffffffffffffffffffffffffffff19166020820180517bffffffffffffffffffffffffffffffffffffffffffffffffffffffff8381831617835250505050610a90565b5050565b6109ed828260405160240161096b929190610eaf565b6040516020818303038152906040527f319af333000000000000000000000000000000000000000000000000000000007bffffffffffffffffffffffffffffffffffffffffffffffffffffffff19166020820180517bffffffffffffffffffffffffffffffffffffffffffffffffffffffff8381831617835250505050610a90565b5050565b610a8b838383604051602401610a0993929190610edf565b6040516020818303038152906040527f07c81217000000000000000000000000000000000000000000000000000000007bffffffffffffffffffffffffffffffffffffffffffffffffffffffff19166020820180517bffffffffffffffffffffffffffffffffffffffffffffffffffffffff8381831617835250505050610a90565b505050565b60008151905060006a636f6e736f6c652e6c6f679050602083016000808483855afa5050505050565b828054610ac590611163565b90600052602060002090601f016020900481019282610ae75760008555610b2e565b82601f10610b0057805160ff1916838001178555610b2e565b82800160010185558215610b2e579182015b82811115610b2d578251825591602001919060010190610b12565b5b509050610b3b9190610b3f565b5090565b5b80821115610b58576000816000905550600101610b40565b5090565b6000610b6f610b6a84610fed565b610fc8565b905082815260208101848484011115610b8757600080fd5b610b92848285611121565b509392505050565b600081359050610ba98161138e565b92915050565b600082601f830112610bc057600080fd5b8135610bd0848260208601610b5c565b91505092915050565b600060208284031215610beb57600080fd5b6000610bf984828501610b9a565b91505092915050565b600060208284031215610c1457600080fd5b600082013567ffffffffffffffff811115610c2e57600080fd5b610c3a84828501610baf565b91505092915050565b6000610c4f8383610de8565b905092915050565b610c60816110e5565b82525050565b610c6f816110e5565b82525050565b6000610c808261102e565b610c8a8185611051565b935083602082028501610c9c8561101e565b8060005b85811015610cd85784840389528151610cb98582610c43565b9450610cc483611044565b925060208a01995050600181019050610ca0565b50829750879550505050505092915050565b6000610cf582611039565b610cff818561106d565b9350610d0f818560208601611130565b610d18816112b3565b840191505092915050565b6000610d2e82611039565b610d38818561107e565b9350610d48818560208601611130565b610d51816112b3565b840191505092915050565b6000610d6960078361107e565b9150610d74826112c4565b602082019050919050565b6000610d8c60348361107e565b9150610d97826112ed565b604082019050919050565b6000610daf60278361107e565b9150610dba8261133c565b604082019050919050565b6000610dd2600083611062565b9150610ddd8261138b565b600082019050919050565b6000606083016000830151610e006000860182610c57565b5060208301518482036020860152610e188282610cea565b9150506040830151610e2d6040860182610e38565b508091505092915050565b610e4181611117565b82525050565b610e5081611117565b82525050565b6000610e6182610dc5565b9150819050919050565b60006020820190508181036000830152610e858184610c75565b905092915050565b60006020820190508181036000830152610ea78184610d23565b905092915050565b60006040820190508181036000830152610ec98185610d23565b9050610ed86020830184610c66565b9392505050565b60006060820190508181036000830152610ef98186610d23565b9050610f086020830185610c66565b610f156040830184610e47565b949350505050565b60006040820190508181036000830152610f378185610d23565b9050610f466020830184610e47565b9392505050565b60006020820190508181036000830152610f6681610d5c565b9050919050565b60006020820190508181036000830152610f8681610d7f565b9050919050565b60006020820190508181036000830152610fa681610da2565b9050919050565b6000602082019050610fc26000830184610e47565b92915050565b6000610fd2610fe3565b9050610fde8282611195565b919050565b6000604051905090565b600067ffffffffffffffff82111561100857611007611284565b5b611011826112b3565b9050602081019050919050565b6000819050602082019050919050565b600081519050919050565b600081519050919050565b6000602082019050919050565b600082825260208201905092915050565b600081905092915050565b600082825260208201905092915050565b600082825260208201905092915050565b600061109a82611117565b91506110a583611117565b9250827fffffffffffffffffffffffffffffffffffffffffffffffffffffffffffffffff038211156110da576110d96111f7565b5b828201905092915050565b60006110f0826110f7565b9050919050565b600073ffffffffffffffffffffffffffffffffffffffff82169050919050565b6000819050919050565b82818337600083830152505050565b60005b8381101561114e578082015181840152602081019050611133565b8381111561115d576000848401525b50505050565b6000600282049050600182168061117b57607f821691505b6020821081141561118f5761118e611255565b5b50919050565b61119e826112b3565b810181811067ffffffffffffffff821117156111bd576111bc611284565b5b80604052505050565b60006111d182611117565b91506111dc83611117565b9250826111ec576111eb611226565b5b828206905092915050565b7f4e487b7100000000000000000000000000000000000000000000000000000000600052601160045260246000fd5b7f4e487b7100000000000000000000000000000000000000000000000000000000600052601260045260246000fd5b7f4e487b7100000000000000000000000000000000000000000000000000000000600052602260045260246000fd5b7f4e487b7100000000000000000000000000000000000000000000000000000000600052604160045260246000fd5b6000601f19601f8301169050919050565b7f5761697420316d00000000000000000000000000000000000000000000000000600082015250565b7f547279696e6720746f207769746864726177206d6f7265206d6f6e657920746860008201527f616e2074686520636f6e7472616374206861732e000000000000000000000000602082015250565b7f4661696c656420746f207769746864726177206d6f6e65792066726f6d20636f60008201527f6e74726163742e00000000000000000000000000000000000000000000000000602082015250565b50565b611397816110e5565b81146113a257600080fd5b5056fea26469706673582212208442ecbe36546fb97e436c00cdd853b91319bc393bddd6c83e05bb27c61fdc9c64736f6c63430008040033596f20796f2c204920616d206120636f6e747261637420616e64204920616d20736d617274",
  "linkReferences": {},
  "deployedLinkReferences": {}
}